{
  "_format": "hh-sol-artifact-1",
  "contractName": "Warcraft3",
  "sourceName": "contracts/Warcraft3.sol",
  "abi": [
    {
      "inputs": [],
      "stateMutability": "nonpayable",
      "type": "constructor"
    },
    {
      "anonymous": false,
      "inputs": [
        {
          "indexed": true,
          "internalType": "address",
          "name": "account",
          "type": "address"
        },
        {
          "indexed": true,
          "internalType": "address",
          "name": "operator",
          "type": "address"
        },
        {
          "indexed": false,
          "internalType": "bool",
          "name": "approved",
          "type": "bool"
        }
      ],
      "name": "ApprovalForAll",
      "type": "event"
    },
    {
      "anonymous": false,
      "inputs": [
        {
          "indexed": true,
          "internalType": "address",
          "name": "previousOwner",
          "type": "address"
        },
        {
          "indexed": true,
          "internalType": "address",
          "name": "newOwner",
          "type": "address"
        }
      ],
      "name": "OwnershipTransferred",
      "type": "event"
    },
    {
      "anonymous": false,
      "inputs": [
        {
          "indexed": true,
          "internalType": "address",
          "name": "operator",
          "type": "address"
        },
        {
          "indexed": true,
          "internalType": "address",
          "name": "from",
          "type": "address"
        },
        {
          "indexed": true,
          "internalType": "address",
          "name": "to",
          "type": "address"
        },
        {
          "indexed": false,
          "internalType": "uint256[]",
          "name": "ids",
          "type": "uint256[]"
        },
        {
          "indexed": false,
          "internalType": "uint256[]",
          "name": "values",
          "type": "uint256[]"
        }
      ],
      "name": "TransferBatch",
      "type": "event"
    },
    {
      "anonymous": false,
      "inputs": [
        {
          "indexed": true,
          "internalType": "address",
          "name": "operator",
          "type": "address"
        },
        {
          "indexed": true,
          "internalType": "address",
          "name": "from",
          "type": "address"
        },
        {
          "indexed": true,
          "internalType": "address",
          "name": "to",
          "type": "address"
        },
        {
          "indexed": false,
          "internalType": "uint256",
          "name": "id",
          "type": "uint256"
        },
        {
          "indexed": false,
          "internalType": "uint256",
          "name": "value",
          "type": "uint256"
        }
      ],
      "name": "TransferSingle",
      "type": "event"
    },
    {
      "anonymous": false,
      "inputs": [
        {
          "indexed": false,
          "internalType": "string",
          "name": "value",
          "type": "string"
        },
        {
          "indexed": true,
          "internalType": "uint256",
          "name": "id",
          "type": "uint256"
        }
      ],
      "name": "URI",
      "type": "event"
    },
    {
      "inputs": [],
      "name": "FROSTMOURNE",
      "outputs": [
        {
          "internalType": "uint256",
          "name": "",
          "type": "uint256"
        }
      ],
      "stateMutability": "view",
      "type": "function"
    },
    {
      "inputs": [],
      "name": "GOLD",
      "outputs": [
        {
          "internalType": "uint256",
          "name": "",
          "type": "uint256"
        }
      ],
      "stateMutability": "view",
      "type": "function"
    },
    {
      "inputs": [],
      "name": "LUMBER",
      "outputs": [
        {
          "internalType": "uint256",
          "name": "",
          "type": "uint256"
        }
      ],
      "stateMutability": "view",
      "type": "function"
    },
    {
      "inputs": [
        {
          "internalType": "address",
          "name": "account",
          "type": "address"
        },
        {
          "internalType": "uint256",
          "name": "id",
          "type": "uint256"
        }
      ],
      "name": "balanceOf",
      "outputs": [
        {
          "internalType": "uint256",
          "name": "",
          "type": "uint256"
        }
      ],
      "stateMutability": "view",
      "type": "function"
    },
    {
      "inputs": [
        {
          "internalType": "address[]",
          "name": "accounts",
          "type": "address[]"
        },
        {
          "internalType": "uint256[]",
          "name": "ids",
          "type": "uint256[]"
        }
      ],
      "name": "balanceOfBatch",
      "outputs": [
        {
          "internalType": "uint256[]",
          "name": "",
          "type": "uint256[]"
        }
      ],
      "stateMutability": "view",
      "type": "function"
    },
    {
      "inputs": [
        {
          "internalType": "address",
          "name": "account",
          "type": "address"
        },
        {
          "internalType": "address",
          "name": "operator",
          "type": "address"
        }
      ],
      "name": "isApprovedForAll",
      "outputs": [
        {
          "internalType": "bool",
          "name": "",
          "type": "bool"
        }
      ],
      "stateMutability": "view",
      "type": "function"
    },
    {
      "inputs": [],
      "name": "owner",
      "outputs": [
        {
          "internalType": "address",
          "name": "",
          "type": "address"
        }
      ],
      "stateMutability": "view",
      "type": "function"
    },
    {
      "inputs": [],
      "name": "renounceOwnership",
      "outputs": [],
      "stateMutability": "nonpayable",
      "type": "function"
    },
    {
      "inputs": [
        {
          "internalType": "address",
          "name": "from",
          "type": "address"
        },
        {
          "internalType": "address",
          "name": "to",
          "type": "address"
        },
        {
          "internalType": "uint256[]",
          "name": "ids",
          "type": "uint256[]"
        },
        {
          "internalType": "uint256[]",
          "name": "amounts",
          "type": "uint256[]"
        },
        {
          "internalType": "bytes",
          "name": "data",
          "type": "bytes"
        }
      ],
      "name": "safeBatchTransferFrom",
      "outputs": [],
      "stateMutability": "nonpayable",
      "type": "function"
    },
    {
      "inputs": [
        {
          "internalType": "address",
          "name": "from",
          "type": "address"
        },
        {
          "internalType": "address",
          "name": "to",
          "type": "address"
        },
        {
          "internalType": "uint256",
          "name": "id",
          "type": "uint256"
        },
        {
          "internalType": "uint256",
          "name": "amount",
          "type": "uint256"
        },
        {
          "internalType": "bytes",
          "name": "data",
          "type": "bytes"
        }
      ],
      "name": "safeTransferFrom",
      "outputs": [],
      "stateMutability": "nonpayable",
      "type": "function"
    },
    {
      "inputs": [
        {
          "internalType": "address",
          "name": "operator",
          "type": "address"
        },
        {
          "internalType": "bool",
          "name": "approved",
          "type": "bool"
        }
      ],
      "name": "setApprovalForAll",
      "outputs": [],
      "stateMutability": "nonpayable",
      "type": "function"
    },
    {
      "inputs": [
        {
          "internalType": "bytes4",
          "name": "interfaceId",
          "type": "bytes4"
        }
      ],
      "name": "supportsInterface",
      "outputs": [
        {
          "internalType": "bool",
          "name": "",
          "type": "bool"
        }
      ],
      "stateMutability": "view",
      "type": "function"
    },
    {
      "inputs": [
        {
          "internalType": "address",
          "name": "newOwner",
          "type": "address"
        }
      ],
      "name": "transferOwnership",
      "outputs": [],
      "stateMutability": "nonpayable",
      "type": "function"
    },
    {
      "inputs": [
        {
          "internalType": "uint256",
          "name": "",
          "type": "uint256"
        }
      ],
      "name": "uri",
      "outputs": [
        {
          "internalType": "string",
          "name": "",
          "type": "string"
        }
      ],
      "stateMutability": "view",
      "type": "function"
    }
  ],
  "bytecode": "0x60806040523480156200001157600080fd5b506040518060800160405280604d815260200162003917604d91396200003d81620000e560201b60201c565b506200005e62000052620000fa60201b60201c565b6200010260201b60201c565b6200008a336001670de0b6b3a764000060405180602001604052806000815250620001c860201b60201c565b620000ba3360026b033b2e3c9fd0803ce800000060405180602001604052806000815250620001c860201b60201c565b620000df336003600160405180602001604052806000815250620001c860201b60201c565b62000fb6565b8060029081620000f69190620008d6565b5050565b600033905090565b6000600360009054906101000a900473ffffffffffffffffffffffffffffffffffffffff16905081600360006101000a81548173ffffffffffffffffffffffffffffffffffffffff021916908373ffffffffffffffffffffffffffffffffffffffff1602179055508173ffffffffffffffffffffffffffffffffffffffff168173ffffffffffffffffffffffffffffffffffffffff167f8be0079c531659141344cd1fd0a4f28419497f9722a3daafe3b4186f6b6457e060405160405180910390a35050565b600073ffffffffffffffffffffffffffffffffffffffff168473ffffffffffffffffffffffffffffffffffffffff16036200023a576040517f08c379a0000000000000000000000000000000000000000000000000000000008152600401620002319062000a44565b60405180910390fd5b60006200024c620000fa60201b60201c565b905060006200026185620003af60201b60201c565b905060006200027685620003af60201b60201c565b90506200028f836000898585896200043060201b60201c565b8460008088815260200190815260200160002060008973ffffffffffffffffffffffffffffffffffffffff1673ffffffffffffffffffffffffffffffffffffffff1681526020019081526020016000206000828254620002f0919062000a95565b925050819055508673ffffffffffffffffffffffffffffffffffffffff16600073ffffffffffffffffffffffffffffffffffffffff168473ffffffffffffffffffffffffffffffffffffffff167fc3d58168c5ae7397731d063d5bbf3d657854427343f4c083240f7aacaa2d0f6289896040516200037092919062000ae1565b60405180910390a46200038f836000898585896200043860201b60201c565b620003a6836000898989896200044060201b60201c565b50505050505050565b60606000600167ffffffffffffffff811115620003d157620003d062000667565b5b604051908082528060200260200182016040528015620004005781602001602082028036833780820191505090505b50905082816000815181106200041b576200041a62000b0e565b5b60200260200101818152505080915050919050565b505050505050565b505050505050565b6200046c8473ffffffffffffffffffffffffffffffffffffffff166200063960201b620008e31760201c565b1562000631578373ffffffffffffffffffffffffffffffffffffffff1663f23a6e6187878686866040518663ffffffff1660e01b8152600401620004b595949392919062000c1c565b6020604051808303816000875af1925050508015620004f457506040513d601f19601f82011682018060405250810190620004f1919062000cec565b60015b620005a5576200050362000d2b565b806308c379a0036200056657506200051a62000d86565b8062000527575062000568565b806040517f08c379a00000000000000000000000000000000000000000000000000000000081526004016200055d919062000e62565b60405180910390fd5b505b6040517f08c379a00000000000000000000000000000000000000000000000000000000081526004016200059c9062000efc565b60405180910390fd5b63f23a6e6160e01b7bffffffffffffffffffffffffffffffffffffffffffffffffffffffff1916817bffffffffffffffffffffffffffffffffffffffffffffffffffffffff1916146200062f576040517f08c379a0000000000000000000000000000000000000000000000000000000008152600401620006269062000f94565b60405180910390fd5b505b505050505050565b6000808273ffffffffffffffffffffffffffffffffffffffff163b119050919050565b600081519050919050565b7f4e487b7100000000000000000000000000000000000000000000000000000000600052604160045260246000fd5b7f4e487b7100000000000000000000000000000000000000000000000000000000600052602260045260246000fd5b60006002820490506001821680620006de57607f821691505b602082108103620006f457620006f362000696565b5b50919050565b60008190508160005260206000209050919050565b60006020601f8301049050919050565b600082821b905092915050565b6000600883026200075e7fffffffffffffffffffffffffffffffffffffffffffffffffffffffffffffffff826200071f565b6200076a86836200071f565b95508019841693508086168417925050509392505050565b6000819050919050565b6000819050919050565b6000620007b7620007b1620007ab8462000782565b6200078c565b62000782565b9050919050565b6000819050919050565b620007d38362000796565b620007eb620007e282620007be565b8484546200072c565b825550505050565b600090565b62000802620007f3565b6200080f818484620007c8565b505050565b5b8181101562000837576200082b600082620007f8565b60018101905062000815565b5050565b601f82111562000886576200085081620006fa565b6200085b846200070f565b810160208510156200086b578190505b620008836200087a856200070f565b83018262000814565b50505b505050565b600082821c905092915050565b6000620008ab600019846008026200088b565b1980831691505092915050565b6000620008c6838362000898565b9150826002028217905092915050565b620008e1826200065c565b67ffffffffffffffff811115620008fd57620008fc62000667565b5b620009098254620006c5565b620009168282856200083b565b600060209050601f8311600181146200094e576000841562000939578287015190505b620009458582620008b8565b865550620009b5565b601f1984166200095e86620006fa565b60005b82811015620009885784890151825560018201915060208501945060208101905062000961565b86831015620009a85784890151620009a4601f89168262000898565b8355505b6001600288020188555050505b505050505050565b600082825260208201905092915050565b7f455243313135353a206d696e7420746f20746865207a65726f2061646472657360008201527f7300000000000000000000000000000000000000000000000000000000000000602082015250565b600062000a2c602183620009bd565b915062000a3982620009ce565b604082019050919050565b6000602082019050818103600083015262000a5f8162000a1d565b9050919050565b7f4e487b7100000000000000000000000000000000000000000000000000000000600052601160045260246000fd5b600062000aa28262000782565b915062000aaf8362000782565b925082820190508082111562000aca5762000ac962000a66565b5b92915050565b62000adb8162000782565b82525050565b600060408201905062000af8600083018562000ad0565b62000b07602083018462000ad0565b9392505050565b7f4e487b7100000000000000000000000000000000000000000000000000000000600052603260045260246000fd5b600073ffffffffffffffffffffffffffffffffffffffff82169050919050565b600062000b6a8262000b3d565b9050919050565b62000b7c8162000b5d565b82525050565b600081519050919050565b600082825260208201905092915050565b60005b8381101562000bbe57808201518184015260208101905062000ba1565b60008484015250505050565b6000601f19601f8301169050919050565b600062000be88262000b82565b62000bf4818562000b8d565b935062000c0681856020860162000b9e565b62000c118162000bca565b840191505092915050565b600060a08201905062000c33600083018862000b71565b62000c42602083018762000b71565b62000c51604083018662000ad0565b62000c60606083018562000ad0565b818103608083015262000c74818462000bdb565b90509695505050505050565b6000604051905090565b600080fd5b60007fffffffff0000000000000000000000000000000000000000000000000000000082169050919050565b62000cc68162000c8f565b811462000cd257600080fd5b50565b60008151905062000ce68162000cbb565b92915050565b60006020828403121562000d055762000d0462000c8a565b5b600062000d158482850162000cd5565b91505092915050565b60008160e01c9050919050565b600060033d111562000d4d5760046000803e62000d4a60005162000d1e565b90505b90565b62000d5b8262000bca565b810181811067ffffffffffffffff8211171562000d7d5762000d7c62000667565b5b80604052505050565b600060443d1062000e1e5762000d9b62000c80565b60043d036004823e80513d602482011167ffffffffffffffff8211171562000dc557505062000e1e565b808201805167ffffffffffffffff81111562000de5575050505062000e1e565b80602083010160043d03850181111562000e0457505050505062000e1e565b62000e158260200185018662000d50565b82955050505050505b90565b600062000e2e826200065c565b62000e3a8185620009bd565b935062000e4c81856020860162000b9e565b62000e578162000bca565b840191505092915050565b6000602082019050818103600083015262000e7e818462000e21565b905092915050565b7f455243313135353a207472616e7366657220746f206e6f6e2d4552433131353560008201527f526563656976657220696d706c656d656e746572000000000000000000000000602082015250565b600062000ee4603483620009bd565b915062000ef18262000e86565b604082019050919050565b6000602082019050818103600083015262000f178162000ed5565b9050919050565b7f455243313135353a204552433131353552656365697665722072656a6563746560008201527f6420746f6b656e73000000000000000000000000000000000000000000000000602082015250565b600062000f7c602883620009bd565b915062000f898262000f1e565b604082019050919050565b6000602082019050818103600083015262000faf8162000f6d565b9050919050565b6129518062000fc66000396000f3fe608060405234801561001057600080fd5b50600436106100e95760003560e01c8063715018a61161008c578063e985e9c511610066578063e985e9c51461024a578063f242432a1461027a578063f2fde38b14610296578063f84e5c87146102b2576100e9565b8063715018a6146102065780638da5cb5b14610210578063a22cb4651461022e576100e9565b80632eb2c2d6116100c85780632eb2c2d61461017e5780633e4bee381461019a5780634e1273f4146101b85780636070067e146101e8576100e9565b8062fdd58e146100ee57806301ffc9a71461011e5780630e89341c1461014e575b600080fd5b610108600480360381019061010391906116c4565b6102d0565b6040516101159190611713565b60405180910390f35b61013860048036038101906101339190611786565b610398565b60405161014591906117ce565b60405180910390f35b610168600480360381019061016391906117e9565b61047a565b60405161017591906118a6565b60405180910390f35b61019860048036038101906101939190611ac5565b61050e565b005b6101a26105af565b6040516101af9190611713565b60405180910390f35b6101d260048036038101906101cd9190611c57565b6105b4565b6040516101df9190611d8d565b60405180910390f35b6101f06106cd565b6040516101fd9190611713565b60405180910390f35b61020e6106d2565b005b6102186106e6565b6040516102259190611dbe565b60405180910390f35b61024860048036038101906102439190611e05565b610710565b005b610264600480360381019061025f9190611e45565b610726565b60405161027191906117ce565b60405180910390f35b610294600480360381019061028f9190611e85565b6107ba565b005b6102b060048036038101906102ab9190611f1c565b61085b565b005b6102ba6108de565b6040516102c79190611713565b60405180910390f35b60008073ffffffffffffffffffffffffffffffffffffffff168373ffffffffffffffffffffffffffffffffffffffff1603610340576040517f08c379a000000000000000000000000000000000000000000000000000000000815260040161033790611fbb565b60405180910390fd5b60008083815260200190815260200160002060008473ffffffffffffffffffffffffffffffffffffffff1673ffffffffffffffffffffffffffffffffffffffff16815260200190815260200160002054905092915050565b60007fd9b67a26000000000000000000000000000000000000000000000000000000007bffffffffffffffffffffffffffffffffffffffffffffffffffffffff1916827bffffffffffffffffffffffffffffffffffffffffffffffffffffffff1916148061046357507f0e89341c000000000000000000000000000000000000000000000000000000007bffffffffffffffffffffffffffffffffffffffffffffffffffffffff1916827bffffffffffffffffffffffffffffffffffffffffffffffffffffffff1916145b80610473575061047282610906565b5b9050919050565b6060600280546104899061200a565b80601f01602080910402602001604051908101604052809291908181526020018280546104b59061200a565b80156105025780601f106104d757610100808354040283529160200191610502565b820191906000526020600020905b8154815290600101906020018083116104e557829003601f168201915b50505050509050919050565b610516610970565b73ffffffffffffffffffffffffffffffffffffffff168573ffffffffffffffffffffffffffffffffffffffff16148061055c575061055b85610556610970565b610726565b5b61059b576040517f08c379a0000000000000000000000000000000000000000000000000000000008152600401610592906120ad565b60405180910390fd5b6105a88585858585610978565b5050505050565b600181565b606081518351146105fa576040517f08c379a00000000000000000000000000000000000000000000000000000000081526004016105f19061213f565b60405180910390fd5b6000835167ffffffffffffffff811115610617576106166118cd565b5b6040519080825280602002602001820160405280156106455781602001602082028036833780820191505090505b50905060005b84518110156106c25761069285828151811061066a5761066961215f565b5b60200260200101518583815181106106855761068461215f565b5b60200260200101516102d0565b8282815181106106a5576106a461215f565b5b602002602001018181525050806106bb906121bd565b905061064b565b508091505092915050565b600281565b6106da610c99565b6106e46000610d17565b565b6000600360009054906101000a900473ffffffffffffffffffffffffffffffffffffffff16905090565b61072261071b610970565b8383610ddd565b5050565b6000600160008473ffffffffffffffffffffffffffffffffffffffff1673ffffffffffffffffffffffffffffffffffffffff16815260200190815260200160002060008373ffffffffffffffffffffffffffffffffffffffff1673ffffffffffffffffffffffffffffffffffffffff16815260200190815260200160002060009054906101000a900460ff16905092915050565b6107c2610970565b73ffffffffffffffffffffffffffffffffffffffff168573ffffffffffffffffffffffffffffffffffffffff161480610808575061080785610802610970565b610726565b5b610847576040517f08c379a000000000000000000000000000000000000000000000000000000000815260040161083e906120ad565b60405180910390fd5b6108548585858585610f49565b5050505050565b610863610c99565b600073ffffffffffffffffffffffffffffffffffffffff168173ffffffffffffffffffffffffffffffffffffffff16036108d2576040517f08c379a00000000000000000000000000000000000000000000000000000000081526004016108c990612277565b60405180910390fd5b6108db81610d17565b50565b600381565b6000808273ffffffffffffffffffffffffffffffffffffffff163b119050919050565b60007f01ffc9a7000000000000000000000000000000000000000000000000000000007bffffffffffffffffffffffffffffffffffffffffffffffffffffffff1916827bffffffffffffffffffffffffffffffffffffffffffffffffffffffff1916149050919050565b600033905090565b81518351146109bc576040517f08c379a00000000000000000000000000000000000000000000000000000000081526004016109b390612309565b60405180910390fd5b600073ffffffffffffffffffffffffffffffffffffffff168473ffffffffffffffffffffffffffffffffffffffff1603610a2b576040517f08c379a0000000000000000000000000000000000000000000000000000000008152600401610a229061239b565b60405180910390fd5b6000610a35610970565b9050610a458187878787876111e4565b60005b8451811015610bf6576000858281518110610a6657610a6561215f565b5b602002602001015190506000858381518110610a8557610a8461215f565b5b60200260200101519050600080600084815260200190815260200160002060008b73ffffffffffffffffffffffffffffffffffffffff1673ffffffffffffffffffffffffffffffffffffffff16815260200190815260200160002054905081811015610b26576040517f08c379a0000000000000000000000000000000000000000000000000000000008152600401610b1d9061242d565b60405180910390fd5b81810360008085815260200190815260200160002060008c73ffffffffffffffffffffffffffffffffffffffff1673ffffffffffffffffffffffffffffffffffffffff168152602001908152602001600020819055508160008085815260200190815260200160002060008b73ffffffffffffffffffffffffffffffffffffffff1673ffffffffffffffffffffffffffffffffffffffff1681526020019081526020016000206000828254610bdb919061244d565b9250508190555050505080610bef906121bd565b9050610a48565b508473ffffffffffffffffffffffffffffffffffffffff168673ffffffffffffffffffffffffffffffffffffffff168273ffffffffffffffffffffffffffffffffffffffff167f4a39dc06d4c0dbc64b70af90fd698a233a518aa5d07e595d983b8c0526c8f7fb8787604051610c6d929190612481565b60405180910390a4610c838187878787876111ec565b610c918187878787876111f4565b505050505050565b610ca1610970565b73ffffffffffffffffffffffffffffffffffffffff16610cbf6106e6565b73ffffffffffffffffffffffffffffffffffffffff1614610d15576040517f08c379a0000000000000000000000000000000000000000000000000000000008152600401610d0c90612504565b60405180910390fd5b565b6000600360009054906101000a900473ffffffffffffffffffffffffffffffffffffffff16905081600360006101000a81548173ffffffffffffffffffffffffffffffffffffffff021916908373ffffffffffffffffffffffffffffffffffffffff1602179055508173ffffffffffffffffffffffffffffffffffffffff168173ffffffffffffffffffffffffffffffffffffffff167f8be0079c531659141344cd1fd0a4f28419497f9722a3daafe3b4186f6b6457e060405160405180910390a35050565b8173ffffffffffffffffffffffffffffffffffffffff168373ffffffffffffffffffffffffffffffffffffffff1603610e4b576040517f08c379a0000000000000000000000000000000000000000000000000000000008152600401610e4290612596565b60405180910390fd5b80600160008573ffffffffffffffffffffffffffffffffffffffff1673ffffffffffffffffffffffffffffffffffffffff16815260200190815260200160002060008473ffffffffffffffffffffffffffffffffffffffff1673ffffffffffffffffffffffffffffffffffffffff16815260200190815260200160002060006101000a81548160ff0219169083151502179055508173ffffffffffffffffffffffffffffffffffffffff168373ffffffffffffffffffffffffffffffffffffffff167f17307eab39ab6107e8899845ad3d59bd9653f200f220920489ca2b5937696c3183604051610f3c91906117ce565b60405180910390a3505050565b600073ffffffffffffffffffffffffffffffffffffffff168473ffffffffffffffffffffffffffffffffffffffff1603610fb8576040517f08c379a0000000000000000000000000000000000000000000000000000000008152600401610faf9061239b565b60405180910390fd5b6000610fc2610970565b90506000610fcf856113cb565b90506000610fdc856113cb565b9050610fec8389898585896111e4565b600080600088815260200190815260200160002060008a73ffffffffffffffffffffffffffffffffffffffff1673ffffffffffffffffffffffffffffffffffffffff16815260200190815260200160002054905085811015611083576040517f08c379a000000000000000000000000000000000000000000000000000000000815260040161107a9061242d565b60405180910390fd5b85810360008089815260200190815260200160002060008b73ffffffffffffffffffffffffffffffffffffffff1673ffffffffffffffffffffffffffffffffffffffff168152602001908152602001600020819055508560008089815260200190815260200160002060008a73ffffffffffffffffffffffffffffffffffffffff1673ffffffffffffffffffffffffffffffffffffffff1681526020019081526020016000206000828254611138919061244d565b925050819055508773ffffffffffffffffffffffffffffffffffffffff168973ffffffffffffffffffffffffffffffffffffffff168573ffffffffffffffffffffffffffffffffffffffff167fc3d58168c5ae7397731d063d5bbf3d657854427343f4c083240f7aacaa2d0f628a8a6040516111b59291906125b6565b60405180910390a46111cb848a8a86868a6111ec565b6111d9848a8a8a8a8a611445565b505050505050505050565b505050505050565b505050505050565b6112138473ffffffffffffffffffffffffffffffffffffffff166108e3565b156113c3578373ffffffffffffffffffffffffffffffffffffffff1663bc197c8187878686866040518663ffffffff1660e01b8152600401611259959493929190612634565b6020604051808303816000875af192505050801561129557506040513d601f19601f8201168201806040525081019061129291906126b1565b60015b61133a576112a16126eb565b806308c379a0036112fd57506112b561270d565b806112c057506112ff565b806040517f08c379a00000000000000000000000000000000000000000000000000000000081526004016112f491906118a6565b60405180910390fd5b505b6040517f08c379a00000000000000000000000000000000000000000000000000000000081526004016113319061280f565b60405180910390fd5b63bc197c8160e01b7bffffffffffffffffffffffffffffffffffffffffffffffffffffffff1916817bffffffffffffffffffffffffffffffffffffffffffffffffffffffff1916146113c1576040517f08c379a00000000000000000000000000000000000000000000000000000000081526004016113b8906128a1565b60405180910390fd5b505b505050505050565b60606000600167ffffffffffffffff8111156113ea576113e96118cd565b5b6040519080825280602002602001820160405280156114185781602001602082028036833780820191505090505b50905082816000815181106114305761142f61215f565b5b60200260200101818152505080915050919050565b6114648473ffffffffffffffffffffffffffffffffffffffff166108e3565b15611614578373ffffffffffffffffffffffffffffffffffffffff1663f23a6e6187878686866040518663ffffffff1660e01b81526004016114aa9594939291906128c1565b6020604051808303816000875af19250505080156114e657506040513d601f19601f820116820180604052508101906114e391906126b1565b60015b61158b576114f26126eb565b806308c379a00361154e575061150661270d565b806115115750611550565b806040517f08c379a000000000000000000000000000000000000000000000000000000000815260040161154591906118a6565b60405180910390fd5b505b6040517f08c379a00000000000000000000000000000000000000000000000000000000081526004016115829061280f565b60405180910390fd5b63f23a6e6160e01b7bffffffffffffffffffffffffffffffffffffffffffffffffffffffff1916817bffffffffffffffffffffffffffffffffffffffffffffffffffffffff191614611612576040517f08c379a0000000000000000000000000000000000000000000000000000000008152600401611609906128a1565b60405180910390fd5b505b505050505050565b6000604051905090565b600080fd5b600080fd5b600073ffffffffffffffffffffffffffffffffffffffff82169050919050565b600061165b82611630565b9050919050565b61166b81611650565b811461167657600080fd5b50565b60008135905061168881611662565b92915050565b6000819050919050565b6116a18161168e565b81146116ac57600080fd5b50565b6000813590506116be81611698565b92915050565b600080604083850312156116db576116da611626565b5b60006116e985828601611679565b92505060206116fa858286016116af565b9150509250929050565b61170d8161168e565b82525050565b60006020820190506117286000830184611704565b92915050565b60007fffffffff0000000000000000000000000000000000000000000000000000000082169050919050565b6117638161172e565b811461176e57600080fd5b50565b6000813590506117808161175a565b92915050565b60006020828403121561179c5761179b611626565b5b60006117aa84828501611771565b91505092915050565b60008115159050919050565b6117c8816117b3565b82525050565b60006020820190506117e360008301846117bf565b92915050565b6000602082840312156117ff576117fe611626565b5b600061180d848285016116af565b91505092915050565b600081519050919050565b600082825260208201905092915050565b60005b83811015611850578082015181840152602081019050611835565b60008484015250505050565b6000601f19601f8301169050919050565b600061187882611816565b6118828185611821565b9350611892818560208601611832565b61189b8161185c565b840191505092915050565b600060208201905081810360008301526118c0818461186d565b905092915050565b600080fd5b7f4e487b7100000000000000000000000000000000000000000000000000000000600052604160045260246000fd5b6119058261185c565b810181811067ffffffffffffffff82111715611924576119236118cd565b5b80604052505050565b600061193761161c565b905061194382826118fc565b919050565b600067ffffffffffffffff821115611963576119626118cd565b5b602082029050602081019050919050565b600080fd5b600061198c61198784611948565b61192d565b905080838252602082019050602084028301858111156119af576119ae611974565b5b835b818110156119d857806119c488826116af565b8452602084019350506020810190506119b1565b5050509392505050565b600082601f8301126119f7576119f66118c8565b5b8135611a07848260208601611979565b91505092915050565b600080fd5b600067ffffffffffffffff821115611a3057611a2f6118cd565b5b611a398261185c565b9050602081019050919050565b82818337600083830152505050565b6000611a68611a6384611a15565b61192d565b905082815260208101848484011115611a8457611a83611a10565b5b611a8f848285611a46565b509392505050565b600082601f830112611aac57611aab6118c8565b5b8135611abc848260208601611a55565b91505092915050565b600080600080600060a08688031215611ae157611ae0611626565b5b6000611aef88828901611679565b9550506020611b0088828901611679565b945050604086013567ffffffffffffffff811115611b2157611b2061162b565b5b611b2d888289016119e2565b935050606086013567ffffffffffffffff811115611b4e57611b4d61162b565b5b611b5a888289016119e2565b925050608086013567ffffffffffffffff811115611b7b57611b7a61162b565b5b611b8788828901611a97565b9150509295509295909350565b600067ffffffffffffffff821115611baf57611bae6118cd565b5b602082029050602081019050919050565b6000611bd3611bce84611b94565b61192d565b90508083825260208201905060208402830185811115611bf657611bf5611974565b5b835b81811015611c1f5780611c0b8882611679565b845260208401935050602081019050611bf8565b5050509392505050565b600082601f830112611c3e57611c3d6118c8565b5b8135611c4e848260208601611bc0565b91505092915050565b60008060408385031215611c6e57611c6d611626565b5b600083013567ffffffffffffffff811115611c8c57611c8b61162b565b5b611c9885828601611c29565b925050602083013567ffffffffffffffff811115611cb957611cb861162b565b5b611cc5858286016119e2565b9150509250929050565b600081519050919050565b600082825260208201905092915050565b6000819050602082019050919050565b611d048161168e565b82525050565b6000611d168383611cfb565b60208301905092915050565b6000602082019050919050565b6000611d3a82611ccf565b611d448185611cda565b9350611d4f83611ceb565b8060005b83811015611d80578151611d678882611d0a565b9750611d7283611d22565b925050600181019050611d53565b5085935050505092915050565b60006020820190508181036000830152611da78184611d2f565b905092915050565b611db881611650565b82525050565b6000602082019050611dd36000830184611daf565b92915050565b611de2816117b3565b8114611ded57600080fd5b50565b600081359050611dff81611dd9565b92915050565b60008060408385031215611e1c57611e1b611626565b5b6000611e2a85828601611679565b9250506020611e3b85828601611df0565b9150509250929050565b60008060408385031215611e5c57611e5b611626565b5b6000611e6a85828601611679565b9250506020611e7b85828601611679565b9150509250929050565b600080600080600060a08688031215611ea157611ea0611626565b5b6000611eaf88828901611679565b9550506020611ec088828901611679565b9450506040611ed1888289016116af565b9350506060611ee2888289016116af565b925050608086013567ffffffffffffffff811115611f0357611f0261162b565b5b611f0f88828901611a97565b9150509295509295909350565b600060208284031215611f3257611f31611626565b5b6000611f4084828501611679565b91505092915050565b7f455243313135353a2061646472657373207a65726f206973206e6f742061207660008201527f616c6964206f776e657200000000000000000000000000000000000000000000602082015250565b6000611fa5602a83611821565b9150611fb082611f49565b604082019050919050565b60006020820190508181036000830152611fd481611f98565b9050919050565b7f4e487b7100000000000000000000000000000000000000000000000000000000600052602260045260246000fd5b6000600282049050600182168061202257607f821691505b60208210810361203557612034611fdb565b5b50919050565b7f455243313135353a2063616c6c6572206973206e6f7420746f6b656e206f776e60008201527f6572206f7220617070726f766564000000000000000000000000000000000000602082015250565b6000612097602e83611821565b91506120a28261203b565b604082019050919050565b600060208201905081810360008301526120c68161208a565b9050919050565b7f455243313135353a206163636f756e747320616e6420696473206c656e67746860008201527f206d69736d617463680000000000000000000000000000000000000000000000602082015250565b6000612129602983611821565b9150612134826120cd565b604082019050919050565b600060208201905081810360008301526121588161211c565b9050919050565b7f4e487b7100000000000000000000000000000000000000000000000000000000600052603260045260246000fd5b7f4e487b7100000000000000000000000000000000000000000000000000000000600052601160045260246000fd5b60006121c88261168e565b91507fffffffffffffffffffffffffffffffffffffffffffffffffffffffffffffffff82036121fa576121f961218e565b5b600182019050919050565b7f4f776e61626c653a206e6577206f776e657220697320746865207a65726f206160008201527f6464726573730000000000000000000000000000000000000000000000000000602082015250565b6000612261602683611821565b915061226c82612205565b604082019050919050565b6000602082019050818103600083015261229081612254565b9050919050565b7f455243313135353a2069647320616e6420616d6f756e7473206c656e6774682060008201527f6d69736d61746368000000000000000000000000000000000000000000000000602082015250565b60006122f3602883611821565b91506122fe82612297565b604082019050919050565b60006020820190508181036000830152612322816122e6565b9050919050565b7f455243313135353a207472616e7366657220746f20746865207a65726f20616460008201527f6472657373000000000000000000000000000000000000000000000000000000602082015250565b6000612385602583611821565b915061239082612329565b604082019050919050565b600060208201905081810360008301526123b481612378565b9050919050565b7f455243313135353a20696e73756666696369656e742062616c616e636520666f60008201527f72207472616e7366657200000000000000000000000000000000000000000000602082015250565b6000612417602a83611821565b9150612422826123bb565b604082019050919050565b600060208201905081810360008301526124468161240a565b9050919050565b60006124588261168e565b91506124638361168e565b925082820190508082111561247b5761247a61218e565b5b92915050565b6000604082019050818103600083015261249b8185611d2f565b905081810360208301526124af8184611d2f565b90509392505050565b7f4f776e61626c653a2063616c6c6572206973206e6f7420746865206f776e6572600082015250565b60006124ee602083611821565b91506124f9826124b8565b602082019050919050565b6000602082019050818103600083015261251d816124e1565b9050919050565b7f455243313135353a2073657474696e6720617070726f76616c2073746174757360008201527f20666f722073656c660000000000000000000000000000000000000000000000602082015250565b6000612580602983611821565b915061258b82612524565b604082019050919050565b600060208201905081810360008301526125af81612573565b9050919050565b60006040820190506125cb6000830185611704565b6125d86020830184611704565b9392505050565b600081519050919050565b600082825260208201905092915050565b6000612606826125df565b61261081856125ea565b9350612620818560208601611832565b6126298161185c565b840191505092915050565b600060a0820190506126496000830188611daf565b6126566020830187611daf565b81810360408301526126688186611d2f565b9050818103606083015261267c8185611d2f565b9050818103608083015261269081846125fb565b90509695505050505050565b6000815190506126ab8161175a565b92915050565b6000602082840312156126c7576126c6611626565b5b60006126d58482850161269c565b91505092915050565b60008160e01c9050919050565b600060033d111561270a5760046000803e6127076000516126de565b90505b90565b600060443d1061279a5761271f61161c565b60043d036004823e80513d602482011167ffffffffffffffff8211171561274757505061279a565b808201805167ffffffffffffffff811115612765575050505061279a565b80602083010160043d03850181111561278257505050505061279a565b612791826020018501866118fc565b82955050505050505b90565b7f455243313135353a207472616e7366657220746f206e6f6e2d4552433131353560008201527f526563656976657220696d706c656d656e746572000000000000000000000000602082015250565b60006127f9603483611821565b91506128048261279d565b604082019050919050565b60006020820190508181036000830152612828816127ec565b9050919050565b7f455243313135353a204552433131353552656365697665722072656a6563746560008201527f6420746f6b656e73000000000000000000000000000000000000000000000000602082015250565b600061288b602883611821565b91506128968261282f565b604082019050919050565b600060208201905081810360008301526128ba8161287e565b9050919050565b600060a0820190506128d66000830188611daf565b6128e36020830187611daf565b6128f06040830186611704565b6128fd6060830185611704565b818103608083015261290f81846125fb565b9050969550505050505056fea2646970667358221220e11c362c7dd3ba713001449806870bb9385b4c98f901f6bf7135803a50ce753e64736f6c6343000811003368747470733a2f2f697066732e696f2f697066732f516d65423159694369735674647a317432344144674d56776543734a64636b3558583573486678313562565271782f7b69647d2e6a736f6e",
  "linkReferences": {},
  "deployedLinkReferences": {}
}